{
  "_format": "hh-sol-artifact-1",
  "contractName": "Crowdfunding",
  "sourceName": "contracts/Crowdfunding.sol",
  "abi": [
    {
      "inputs": [
        {
          "internalType": "uint256",
          "name": "_durationInMinutes",
          "type": "uint256"
        }
      ],
      "stateMutability": "nonpayable",
      "type": "constructor"
    },
    {
      "inputs": [
        {
          "internalType": "string",
          "name": "",
          "type": "string"
        }
      ],
      "name": "categoryTotals",
      "outputs": [
        {
          "internalType": "uint256",
          "name": "",
          "type": "uint256"
        }
      ],
      "stateMutability": "view",
      "type": "function"
    },
    {
      "inputs": [
        {
          "internalType": "string",
          "name": "category",
          "type": "string"
        }
      ],
      "name": "contribute",
      "outputs": [],
      "stateMutability": "payable",
      "type": "function"
    },
    {
      "inputs": [
        {
          "internalType": "address",
          "name": "",
          "type": "address"
        }
      ],
      "name": "contributions",
      "outputs": [
        {
          "internalType": "uint256",
          "name": "",
          "type": "uint256"
        }
      ],
      "stateMutability": "view",
      "type": "function"
    },
    {
      "inputs": [],
      "name": "deadline",
      "outputs": [
        {
          "internalType": "uint256",
          "name": "",
          "type": "uint256"
        }
      ],
      "stateMutability": "view",
      "type": "function"
    },
    {
      "inputs": [],
      "name": "getBalance",
      "outputs": [
        {
          "internalType": "uint256",
          "name": "",
          "type": "uint256"
        }
      ],
      "stateMutability": "view",
      "type": "function"
    },
    {
      "inputs": [],
      "name": "goal",
      "outputs": [
        {
          "internalType": "uint256",
          "name": "",
          "type": "uint256"
        }
      ],
      "stateMutability": "view",
      "type": "function"
    },
    {
      "inputs": [],
      "name": "owner",
      "outputs": [
        {
          "internalType": "address",
          "name": "",
          "type": "address"
        }
      ],
      "stateMutability": "view",
      "type": "function"
    },
    {
      "inputs": [],
      "name": "refund",
      "outputs": [],
      "stateMutability": "nonpayable",
      "type": "function"
    },
    {
      "inputs": [],
      "name": "withdraw",
      "outputs": [],
      "stateMutability": "nonpayable",
      "type": "function"
    }
  ],
  "bytecode": "0x608060405234801561001057600080fd5b50604051610f29380380610f29833981810160405281019061003291906100e1565b336000806101000a81548173ffffffffffffffffffffffffffffffffffffffff021916908373ffffffffffffffffffffffffffffffffffffffff16021790555068056bc75e2d63100000600181905550603c8161008f919061013d565b4261009a919061017f565b600281905550506101b3565b600080fd5b6000819050919050565b6100be816100ab565b81146100c957600080fd5b50565b6000815190506100db816100b5565b92915050565b6000602082840312156100f7576100f66100a6565b5b6000610105848285016100cc565b91505092915050565b7f4e487b7100000000000000000000000000000000000000000000000000000000600052601160045260246000fd5b6000610148826100ab565b9150610153836100ab565b9250828202610161816100ab565b915082820484148315176101785761017761010e565b5b5092915050565b600061018a826100ab565b9150610195836100ab565b92508282019050808211156101ad576101ac61010e565b5b92915050565b610d67806101c26000396000f3fe6080604052600436106100865760003560e01c806342e94c901161005957806342e94c9014610123578063590e1ae3146101605780635c43217b146101775780638da5cb5b14610193578063cceed946146101be57610086565b806312065fe01461008b57806329dcb0cf146100b65780633ccfd60b146100e157806340193883146100f8575b600080fd5b34801561009757600080fd5b506100a06101fb565b6040516100ad9190610682565b60405180910390f35b3480156100c257600080fd5b506100cb610203565b6040516100d89190610682565b60405180910390f35b3480156100ed57600080fd5b506100f6610209565b005b34801561010457600080fd5b5061010d610345565b60405161011a9190610682565b60405180910390f35b34801561012f57600080fd5b5061014a6004803603810190610145919061070f565b61034b565b6040516101579190610682565b60405180910390f35b34801561016c57600080fd5b50610175610363565b005b610191600480360381019061018c9190610882565b610502565b005b34801561019f57600080fd5b506101a8610617565b6040516101b591906108da565b60405180910390f35b3480156101ca57600080fd5b506101e560048036038101906101e09190610882565b61063b565b6040516101f29190610682565b60405180910390f35b600047905090565b60025481565b60008054906101000a900473ffffffffffffffffffffffffffffffffffffffff1673ffffffffffffffffffffffffffffffffffffffff163373ffffffffffffffffffffffffffffffffffffffff1614610297576040517f08c379a000000000000000000000000000000000000000000000000000000000815260040161028e90610952565b60405180910390fd5b6001544710156102dc576040517f08c379a00000000000000000000000000000000000000000000000000000000081526004016102d3906109be565b60405180910390fd5b60008054906101000a900473ffffffffffffffffffffffffffffffffffffffff1673ffffffffffffffffffffffffffffffffffffffff166108fc479081150290604051600060405180830381858888f19350505050158015610342573d6000803e3d6000fd5b50565b60015481565b60036020528060005260406000206000915090505481565b6002544210156103a8576040517f08c379a000000000000000000000000000000000000000000000000000000000815260040161039f90610a2a565b60405180910390fd5b60015447106103ec576040517f08c379a00000000000000000000000000000000000000000000000000000000081526004016103e390610abc565b60405180910390fd5b6000600360003373ffffffffffffffffffffffffffffffffffffffff1673ffffffffffffffffffffffffffffffffffffffff16815260200190815260200160002054905060008111610473576040517f08c379a000000000000000000000000000000000000000000000000000000000815260040161046a90610b28565b60405180910390fd5b6000600360003373ffffffffffffffffffffffffffffffffffffffff1673ffffffffffffffffffffffffffffffffffffffff168152602001908152602001600020819055503373ffffffffffffffffffffffffffffffffffffffff166108fc829081150290604051600060405180830381858888f193505050501580156104fe573d6000803e3d6000fd5b5050565b6002544210610546576040517f08c379a000000000000000000000000000000000000000000000000000000000815260040161053d90610b94565b60405180910390fd5b60003411610589576040517f08c379a000000000000000000000000000000000000000000000000000000000815260040161058090610c26565b60405180910390fd5b34600360003373ffffffffffffffffffffffffffffffffffffffff1673ffffffffffffffffffffffffffffffffffffffff16815260200190815260200160002060008282546105d89190610c75565b92505081905550346004826040516105f09190610d1a565b9081526020016040518091039020600082825461060d9190610c75565b9250508190555050565b60008054906101000a900473ffffffffffffffffffffffffffffffffffffffff1681565b6004818051602081018201805184825260208301602085012081835280955050505050506000915090505481565b6000819050919050565b61067c81610669565b82525050565b60006020820190506106976000830184610673565b92915050565b6000604051905090565b600080fd5b600080fd5b600073ffffffffffffffffffffffffffffffffffffffff82169050919050565b60006106dc826106b1565b9050919050565b6106ec816106d1565b81146106f757600080fd5b50565b600081359050610709816106e3565b92915050565b600060208284031215610725576107246106a7565b5b6000610733848285016106fa565b91505092915050565b600080fd5b600080fd5b6000601f19601f8301169050919050565b7f4e487b7100000000000000000000000000000000000000000000000000000000600052604160045260246000fd5b61078f82610746565b810181811067ffffffffffffffff821117156107ae576107ad610757565b5b80604052505050565b60006107c161069d565b90506107cd8282610786565b919050565b600067ffffffffffffffff8211156107ed576107ec610757565b5b6107f682610746565b9050602081019050919050565b82818337600083830152505050565b6000610825610820846107d2565b6107b7565b90508281526020810184848401111561084157610840610741565b5b61084c848285610803565b509392505050565b600082601f8301126108695761086861073c565b5b8135610879848260208601610812565b91505092915050565b600060208284031215610898576108976106a7565b5b600082013567ffffffffffffffff8111156108b6576108b56106ac565b5b6108c284828501610854565b91505092915050565b6108d4816106d1565b82525050565b60006020820190506108ef60008301846108cb565b92915050565b600082825260208201905092915050565b7f4f6e6c79206f776e65722063616e2063616c6c00000000000000000000000000600082015250565b600061093c6013836108f5565b915061094782610906565b602082019050919050565b6000602082019050818103600083015261096b8161092f565b9050919050565b7f476f616c206e6f74207265616368656400000000000000000000000000000000600082015250565b60006109a86010836108f5565b91506109b382610972565b602082019050919050565b600060208201905081810360008301526109d78161099b565b9050919050565b7f43616d706169676e207374696c6c206163746976650000000000000000000000600082015250565b6000610a146015836108f5565b9150610a1f826109de565b602082019050919050565b60006020820190508181036000830152610a4381610a07565b9050919050565b7f476f616c20776173206d65742c20726566756e64206e6f7420617661696c616260008201527f6c65000000000000000000000000000000000000000000000000000000000000602082015250565b6000610aa66022836108f5565b9150610ab182610a4a565b604082019050919050565b60006020820190508181036000830152610ad581610a99565b9050919050565b7f4e6f20636f6e747269627574696f6e7320746f20726566756e64000000000000600082015250565b6000610b12601a836108f5565b9150610b1d82610adc565b602082019050919050565b60006020820190508181036000830152610b4181610b05565b9050919050565b7f446561646c696e65207061737365640000000000000000000000000000000000600082015250565b6000610b7e600f836108f5565b9150610b8982610b48565b602082019050919050565b60006020820190508181036000830152610bad81610b71565b9050919050565b7f436f6e747269627574696f6e206d75737420626520677265617465722074686160008201527f6e20300000000000000000000000000000000000000000000000000000000000602082015250565b6000610c106023836108f5565b9150610c1b82610bb4565b604082019050919050565b60006020820190508181036000830152610c3f81610c03565b9050919050565b7f4e487b7100000000000000000000000000000000000000000000000000000000600052601160045260246000fd5b6000610c8082610669565b9150610c8b83610669565b9250828201905080821115610ca357610ca2610c46565b5b92915050565b600081519050919050565b600081905092915050565b60005b83811015610cdd578082015181840152602081019050610cc2565b60008484015250505050565b6000610cf482610ca9565b610cfe8185610cb4565b9350610d0e818560208601610cbf565b80840191505092915050565b6000610d268284610ce9565b91508190509291505056fea264697066735822122063a80fa549451fe88b098d94173c6af5ff786ca4fa834cbb58feb66f6a07704f64736f6c634300081c0033",
  "linkReferences": {},
  "deployedLinkReferences": {}
}